:020000040800F2
:10000000801E00201D5800080D5700080F570008DB
:1000100000000000000000000000000000000000E0
:10002000000000000000000000000000C1440008C3
:10003000000000000000000083440008B93B0008F5
:1000400007120008000000008312000833150008A2
:10005000871500086F190008115700087319000868
:1000600000000000771900081F25000883330008EE
:10007000133700081B570008F34200080000000077
:10008000E3510008AB570008000000004758000883
:10009000495800084B5800084D5800084F580008B0
:1000A00051580008535800085558000825570008B3
:1000B00057580008F0B5A5B004000D002A9E00BFF7
:1000C00073A003C86F4603C7089506A83B21465492
:1000D0000020119004940392029313E0039C3500D6
:1000E000049F21780898B8470890002800D1B6E00E
:1000F0001198401C1190641C6D1EF2D10497039856
:100100008019039003980078252809D100260B96C2
:100110000C960D960E960F9610960021039C0FE0FC
:100120006A460021C943039801F050F8060001D146
:10013000119896E0D2D50126E1E70800012101439C
:10014000641C20782028F8D023280CD02B2804D039
:100150002D2805D0302809D085E008000221EEE7DF
:1001600008000421EBE708000821E8E70800102157
:10017000E5E713960AE0139A444B9A4205DA930096
:100180009A185200101830381390641C207802001E
:10019000303A0A2AEFD320782E2803D00020C0431B
:1001A000129028E0641C20782A280AD1029800685E
:1001B000029A10600268001D029B18601292641C73
:1001C00019E02D2802D12D22641C00E00022129695
:1001D0000CE0002A09D1129B2C4DAB4205DA9D00A0
:1001E000EB185B00181830381290641C207803005C
:1001F000303B0A2BEDD306AD29872778390000BFA5
:1002000025A000F0F5FF002801D0641C00E00027C5
:100210003A202F54285C682804D1207868280AD115
:10022000622005E06C2806D120786C2803D171206B
:100230003A216854641C16A80A902378029A06A9E9
:10024000049800F067F8611C0391002807D116AAF2
:1002500006A9049800F0F8F9002800D452E700201D
:10026000C04325B0F0BD2A2883D1029802680260FD
:100270001068121D029B1A601390002804D5424298
:100280001392080004210143641C84E7CBCCCC0CFE
:100290000000000000000000686A6C747A4C0000E6
:1002A0000B0062281CD068280DD06A2803D06C2867
:1002B00023D0712821D11A68D21D072082431A60E9
:1002C00003CA1A607047002A19681960086803D0C9
:1002D000091D196000B217E0091D196080B217E00E
:1002E000002A19681960086803D0091D196040B216
:1002F0000AE0091D1960C0B20AE0002A19681960F5
:10030000086803D0091D1960C1177047091D1960DD
:10031000002170477CB50C0011001E0025693200D9
:10032000253A00D14AE11C3A00D182E0121F022A8C
:1003300000D87EE00E3A00D104E1521F58D0093AAD
:1003400077D0921E16D0521E34D0521E022A70D977
:10035000121F2FD0521F00D194E0521E48D0521EBF
:1003600000D1DEE0D21E00D1FAE0921E40D0D21EB3
:100370003ED029E13A22A25C6C2A09D06069421C75
:1003800062610A680A601368121D0A602B5425E135
:100390000A680A601368121D0A6000930021019127
:1003A000C94321636A46210000F0D0F9002800D437
:1003B00014E100E101223A20205CFFF771FF03C441
:1003C000083C002904DA6069411C61612D210DE0BF
:1003D000208F810704D56069411C61612B2105E0F4
:1003E000C00721D56069411C6161202129541BE0AF
:1003F00000223A20205CFFF753FF03C4083C38205A
:10040000205C000710D503CC083C002901D100284E
:100410000AD020203043782806D160693021295441
:10042000401C411C61612E5460692818E060310055
:1004300084E00868C01D0722904308600CC808606B
:100440000CC4083C03CC083CC80F04D06069411CB4
:1004500061612D210DE0208F810704D56069411C69
:1004600061612B2105E0C00704D56069411C616111
:100470002021295460692818E0603100200000F034
:1004800083FAABE03B20205C002803D00024E44347
:1004900053A074E03A20205C622808D0682823D05A
:1004A0006A2812D06C282ED071280ED02BE00A6852
:1004B0000A601068121D0A60002803D10024E4437A
:1004C0004DA05CE0E16A017088E00868086002689D
:1004D000001D0860002A03D10024E44346A04EE03A
:1004E000E06AC11703C279E00A680A601068121D49
:1004F0000A60002804D10024E44300BF3EA03EE08F
:10050000E16A01806AE00A680A601068121D0A60E8
:10051000002803D10024E44337A030E0E16A016001
:100520005CE0086808600268001D08600020C043A5
:100530000021104003C4083CE5607821200000F051
:100540006BF94BE06C223A23E2540B680B601A689B
:100550001B1D0B60002A29D10024E4432CA00EE0CF
:100560003A22A25C6C2AF0D0086808600568001D79
:100570000860E560002D06D10024E4432BA000F0C4
:1005800043FE201A76BD266B002E03D5280000F00E
:100590005FFE09E032000021280000F061FE002823
:1005A00001D0401B00E03000A06117E0210000F006
:1005B000CDF8002812D50020C04376BD6069411CEB
:1005C00061612521295409E06169481C6061252287
:1005D0006A54310002D0411C61612E54002076BD66
:1005E0007072696E74665F733A20256E2064697359
:1005F000616C6C6F776564007072696E74663A2026
:1006000062616420256E20617267756D656E74008D
:100610007072696E74665F733A2062616420256C43
:100620007320617267756D656E7400007072696E1B
:1006300074665F733A20626164202573206172677B
:10064000756D656E74000000F8B506000C001700AB
:10065000606B6169401A216A401AA169401A616A97
:10066000401AE169401AA16A401A00903820205CC3
:1006700040070ED4009800280BDD05462021A06815
:10068000B047A06000285DD0E06A401CE0626D1EAB
:10069000F4D13A0063692100300000F0F3FC002837
:1006A00050D1256A002D0ADD3021A068B047A06036
:1006B000002847D0E06A401CE0626D1EF4D1A369B7
:1006C000E2682100300000F0DDFC00283AD1656AC4
:1006D000002D0ADD3021A068B047A060002831D08D
:1006E000E06A401CE0626D1EF4D1E369E068A16934
:1006F00042182100300000F0C5FC002822D1A56A74
:10070000002D0ADD3021A068B047A060002819D074
:10071000E06A401CE0626D1EF4D13820205C400786
:100720000ED5009800280BDD05462021A068B047B3
:10073000A060002806D0E06A401CE0626D1EF4D183
:100740000020F2BD0020C043F2BD0000F0B5A7B00C
:1007500004000D0016002F6B002F00D5874F00F00E
:100760008BFD696B0A1800BF29A003C804AB03C343
:10077000812A4AD200200694009503900024002F7D
:1007800032DD04AA316801A800F025FD05003CD443
:100790003068002801D16D1E37D4AF4224DB0098A9
:1007A0004069401981280BD30098446307AA009937
:1007B0000698FFF749FF0390002815D4009844617C
:1007C0000098406902902A0001A907A8029BC0185E
:1007D00000F058FD029840190099486130680028DF
:1007E00002D0361D7F1BCAE7069B009C0398002899
:1007F00004D107AA21001800FFF726FF002802D124
:1008000000216161616327B0F0BD0020C043FAE7B9
:100810000000000000000000F2B586B00400256969
:100820006F2901D1082707E00846202101437829D4
:1008300001D00A2700E010273C2603CC083C04AA7C
:1008400003C26A46127E642A03D06A46127E692A6F
:1008500009D1002907DA04A803C800220023121ACC
:100860008B4104A80CC004A803C8002920D100288B
:100870001ED1206B00281BD1082F4ED13820205CC0
:1008800000074AD53B26302046E000290ED5382106
:10089000615C14220A40102A08D1616B6269891ACE
:1008A000226A891A081A002800DD206207B0F0BD0C
:1008B0000294009504A830C8761E019620002900F5
:1008C0003A00FB1700F00CFD3032D0B23A2803DBBF
:1008D0006846007E51381218009882552000290081
:1008E0003A00FB1700F0FCFC04000D0001D1002CC5
:1008F00005D00298C068009989198842DCD3029C0F
:10090000009D082F09D13820205C000705D5A85D7F
:10091000302802D0761E3020A8553C20801BA061D4
:10092000A919E160216B8842AFDA081A2062208F92
:10093000134901402187B9E7F8B50026114F04009B
:100940000D00009214E0C00707D532003B002000E4
:10095000290000F0FAFC04000D00009840100090FF
:100960003000390032003B0000F0EFFC06000F00C1
:1009700000980028E7D120002900F4BDFFFFFF7F89
:10098000EFFF000000002440F3B593B005AA03C8B0
:1009900002AB03C314A8007820210143684601700C
:1009A00061290BD01398006B002801D5062003E0C5
:1009B00004D1672902D1012013990863139803C851
:1009C0004C006415641C13D10B0311D00320139940
:1009D000886114A8007861381A2804D255497944EE
:1009E000FF31533116E054497944FF314D3111E064
:1009F0004C006415641C13D10B0311D1032013990F
:100A0000886114A8007861381A281BD34B497944AF
:100A1000FF312B3103221398C06800F033FCCCE186
:100A200010AB03C391A6C0CE10A803C839408025DF
:100A30006D03A9420BD20023019310AB30CB604071
:100A400069400EE03E497944FF310939E2E7080D7B
:100A5000884C2418019410A803C8884D0D4086497D
:100A60002943139B03C368460078612813D1139868
:100A7000C06830210170811C139BD96014A90978CA
:100A8000612901D1782100E0582141701398406913
:100A9000801C13994861139830C826402F4005D117
:100AA000002E03D100206B4618817DE16846007856
:100AB000612800D0A8E01398006B002801D5212000
:100AC00000E0401C0090009F7F1C02A803C8002289
:100AD000002300F0FCFC02D2802000064540019873
:100AE000001F019069460A7505A8461C002F00DC0E
:100AF00069E120002900002280235B0300F000FD53
:100B000000D960E169004A0D11001C31002A19D09A
:100B1000002917DDB74A914206DB10052900802223
:100B200012061140014311E0544A2A4008051043BF
:100B300005000DE0D84C0000D84C0000DC4C000053
:100B4000D44C0000290080221206114000240D0020
:100B50002000290000F0EEFC0290FF1F002F09DDAD
:100B600000F022FD02000B002000290000F083FDB0
:100B700004000D00F01D0721029A04E0401E130737
:100B80001B0F03701211002A01DD491EF6D5491E04
:100B900000D514E1401E00220270F8E70023040093
:100BA00005AD2D1901E0401E6D1E641E2E789E427B
:100BB000F9D00F2B04D14B1C1B5D5B1C491C0B5542
:100BC000002C04D505AA401C0199091D0191431E62
:100BD00011D4D41814A9097825783035EEB23A2EFC
:100BE00002DB0E003A3EAD1925705B1E641E002B21
:100BF000F2D514AB19701399096B002900D4D0E019
:100C0000411E139B1963CCE002A803C800220023F5
:100C100000F05DFC06D202A803C8802212065140F3
:100C200002AA03C2019874494843744900F09AFD2E
:100C3000019007200199401A049005DD024602A8A0
:100C400003C8FFF779FE0AE0424200206C49FFF733
:100C500073FE02000B0002A803C800F0B2FD6A4652
:100C60001278662A0CD1019A0A320AE0FFFFFFFFD0
:100C7000FFFFFF7F02FCFFFF0000E03FFFFF0F8050
:100C80000622139B1B6B9A18142A00DD14223023B2
:100C90006C46237505AB5C1C02E002A803C8049AED
:100CA000002A3CDD02AB03C3049202A803C800F093
:100CB00053FC0F9006460834042530000A2100F04A
:100CC00065FD0F0030000A2100F060FD060030379E
:100CD000601E077030000A2100F058FD0F00300040
:100CE0000A2100F053FD0600A41E303727706D1E48
:100CF000E3D108340498083804900028CDDD0F981B
:100D000000F042FC02000B0002A803C800F0B3FC94
:100D100000223C4B00F019FB02AA03C2C5E705A85C
:100D2000401C211A05A8421C019802E0491E401EE1
:100D3000521C1378302BF9D0019068460078662851
:100D400002D10198401C06E068460078652801D170
:100D5000012000E00020139B1B6B1818814200DA71
:100D6000481E00281DD4884204DA115C352901DBB5
:100D7000392300E030230400511E0D1901E0401E0C
:100D80006D1E641E2E789E42F9D0392B02D1135D60
:100D90005B1C1355002C04D50A00401C0199491C0A
:100DA000019169460881019800B20090029B1BB234
:100DB00014A80178139800F027F815B0F0BDC61DEF
:100DC000002F00DD95E605A9481C331A05A8421C32
:100DD0000098834200DC1800002800D50BE79842F9
:100DE00000DBDBE64B1C1B5C072B00DCD6E60F238D
:100DF000D5E60000FF07000097750000A0860100FF
:100E00000000F03F84D79741F6B583B006000F008D
:100E10001C0000F0E6F9406A007869460870356BFE
:100E2000002C03DC012400BFA3A004902020384341
:100E3000662803D10A9F3FB27F1C1AE0672800D0C2
:100E400085E00A9800B20321C943884200DA82E0B3
:100E5000A84200DB7FE00A9F3FB27F1C3820305C55
:100E6000000702D4AC4200DA250038B22D1A00D5B2
:100E70000025B169F06840183AB2002A26DC491C06
:100E800030220270002D03DC3820305C000704D5CE
:100E900068460078F2685054491CB16138B241424A
:100EA0008D4200DA6F423FB278427062ED19A5427E
:100EB00000DA2C0024B2F46122000499F068B369CE
:100EC000C01800F0DFF9281BB062C3E0944218DAC2
:100ED0002200049900F0D6F9B0690019B0613FB260
:100EE000391B7162002D03DC3821715C090706D5BE
:100EF00069460978F2681154F069401CF061B562E6
:100F0000A8E0049900F0BEF938B2B1690918E41BF1
:100F1000002D03DC3822B25C120704D56A46127831
:100F2000F3685A54491CB16121B28D4200DA2C0099
:100F300022B204990918F068B369C01800F0A2F948
:100F400024B2B0690019B061281B706282E0612F81
:100F500011D1702712E0AC4204DA3821715C090724
:100F600000D425006D1E00D50025672F01D165270F
:100F700004E0452702E0412F00D15027B069411C11
:100F8000B161049A1278F3681A540498401C0490D2
:100F9000002D03DC3820305C000718D5481CB061F8
:100FA0006A461278F3685A54002D10DD641E21B28F
:100FB0008D4200DA2C0022B20499F368181800F070
:100FC00061F924B2B0690019B061281B7062F06841
:100FD000B169401807700A9909B2002904D42B217D
:100FE0004170801C049006E02D224270801C049009
:100FF00048426946088500246D460A9800B205E01B
:101000000A2100F055FC2970641C6D1C00B20028F8
:10101000F6DC012C09DC20203843652805D130207E
:10102000049908700498401C0490002C28D13020AA
:10103000049908700498401C07E0641E6946095D25
:1010400030310170401C002CF7DCF168B26989185E
:10105000401AF0613820305C1421014010290DD174
:101060007069B1694018716A4018F1694018B16A35
:101070004018716B884201DA081A306205B0F0BD81
:101080000498E0E7F8B50024002B13D007000E0009
:1010900014001D002178B068B847B060002807D060
:1010A000F06A401CF062641C6D1EF3D1002401E064
:1010B0000024E4432000F2BD3000F1B4016842187E
:1010C00041684808131800988068C9071ED549462A
:1010D00040181BE01778521C0770401C761EF9D18F
:1010E000002C13D01678521C89080D40032D01D115
:1010F0001578521C290271184D424119A41C05D0C3
:101100000D78491C0570401C641EF9D19A420FD01D
:101110001178521C032503260E4002D11678F61CC6
:10112000521C0C090F2CD9D114780F34521CD5E75E
:1011300000980C30F2BC7047FFE741381A28804114
:10114000C00F704701000939052901D3202801D1BA
:101150000120704700207047010041391A2900D250
:10116000203070472048704730B45368D418042B9F
:101170000BDA002909D0057825700578002D04D0F8
:101180005B1C491E641C401CF1E7536030BC704777
:1011900038B500290ED01D001400FFF7E5FF616887
:1011A00020006A6B90470122D243811A02D0491E67
:1011B00002D004E0012000E00020C04332BD002145
:1011C000616032BD80B5DA6B904702BD80B5064BD9
:1011D000FFF7DEFF02BD80B5034BFFF7F3FF02BD53
:1011E000000002487047000058050020200500203C
:1011F00000BFC9B200E0401C02788A4202D0002A37
:10120000F9D100207047FEE780B5002801D100BF6A
:1012100007A006490B68002B03D022220021984723
:1012200001E000F09FFB222002BD0000781A0020A0
:10123000636F6E73747261696E742068616E646C42
:1012400065723A20626164206D6573736167650041
:10125000010000E0491C0A78002AFBD1081A7047F7
:10126000C9B201E0401C521E002A03D003788B4211
:10127000F8D170470020704780B5FFF773FF006C0E
:1012800002BDFEE7124207D08B0706D00B78491C3F
:101290000370401C521EF7D87047830706D00B78A6
:1012A000491C0370401C521EF9D1704770B4103AAB
:1012B00003D378C9103A78C0FBD2530701D318C9B9
:1012C00018C001D508C908C0D20704D30B88038011
:1012D000891C801C002A01D50B78037070BC7047F4
:1012E000124224D0994228D970B500251B4202D061
:1012F0000C00002109E000240126491864419442B1
:1013000000D3A41A7641F8D33100012601E07641DA
:1013100009D2001864416D41A41A9D41F7D2A41866
:101320005D41B619F5D3300022002B0070BD1B4281
:10133000D8D108B500F01CFB08BD01D19042D3D232
:1013400002000B00002100207047F0B50E005E4047
:101350000125ED072E40B446AE0ADF184C18F442C2
:1013600008D2F7420ED2640D01D07F0D12D10020B9
:101370006146F0BD05D1F74201D87F0D05D10020AF
:10138000C143F0BDFBD1640DF9D00020C143490534
:1013900049088FE0E419C902DB0229432B43DB0A29
:1013A000460DC00231438E4630B487B295B27D43BC
:1013B0002E0CADB2140C7C43A419260C2404254336
:1013C0009CB27C43A419190C7943270CC919A4B207
:1013D0000F043C43090C000C97B247432E0CBE1976
:1013E0003543ADB2170C4743360CBF19A6B2BF192F
:1013F0003E043543240C3E0C36199FB24743BF19B7
:10140000BCB23E0C89191F0C47437F183E0434437D
:10141000390C704680B297B247432E0CBE19354343
:10142000ADB2170C4743360CBF19A6B2BF193E0424
:101430003543240C3E0C36199FB24743BF19BCB24A
:101440003E0C89191F0C47437F183E043443390C66
:1014500077463F0C90B278432E0C80190604ADB24B
:101460002E43050CA0B22D18120C7A435019020C11
:1014700080B2240CA4189AB27A431219140420439F
:10148000120C89181B0C7B43C91830BCEF0A394277
:1014900003D1B61940414941641E6F12BF0DE41BD0
:1014A0000BDBFF19BC4211DA240500274208AE41CC
:1014B0007841614166463143F0BD641C05D1401C52
:1014C0006141CF0201D34908F4E750E75DE730B44A
:1014D000012464054D00EC420BD85D00EC4208D8B5
:1014E0000C001C4364000443144304D2994200D10D
:1014F000904230BC7047FCD08B42FAD18242F8E770
:1015000030B4012464054D00EC420BD85D00EC4280
:1015100008D80C001C4364000443144304D28B42DB
:1015200000D1824230BC7047FCD09942FAD190423F
:10153000F8E7FEE7F4464A1805D200F00FF801D5A7
:1015400080174008604700F009F80121C907884268
:1015500000D90800404260474A1812D2400DC90223
:1015600008430121C9070843520D40210901521ABD
:10157000521C06D452421F3201D4D0407047C017CB
:10158000704700207047FEE7010042221201D21E80
:10159000004207D002D4521E0018FCD5C10A4005F3
:1015A00012058918704700000100EED54042F4464C
:1015B000FFF7EBFF0122D207114360478B4200D1B6
:1015C000824205D98446100062468C461900634663
:1015D000DF184C18640D7F0D3AD0661C760537D0A5
:1015E000E61B352E34DCDB022B43DB0A0C0DC90273
:1015F0002943C912202E0DDB1700203E06D01F0004
:10160000F741F3405F400026012A7741C01871413D
:101610000DD217E01700F741F2405740F3415A400E
:10162000B340F3405A400026801859410AD3A21C07
:1016300052050FD0C207012F724117004008CB0797
:1016400018434908641C24054208AF4170416141B8
:10165000F0BC7047641C21050020F9E76B4010E0E6
:101660006B40ABE7F742F3D1E943F1E72442EFD116
:1016700000200021ECE7F0B40125ED070F005F40EA
:10168000EED40C00871A9C4105D2C01BA141D2198F
:10169000634169406B40AE0ADF184C18F442E1D256
:1016A000640D7F0DE2D0E61B362ED1DCDB022B432E
:1016B000DB0AA4460C0DC9022943C90A012E28DC05
:1016C00004D1D6075208DF073A435B08EF0A764297
:1016D0009041994114D039423BD1B619404149411A
:1016E000761C394204D1761C001849413942FAD09F
:1016F000B9436746B74208D9A41B24052143A7E78D
:101700000042EAD13642E8D1A2E7E40AE10700202C
:101710009EE7202E0BDD203E1F00F340F7415F4087
:10172000012A002257417E42984191410BE0170067
:10173000F741F2405740F3415A40B340F3405A401A
:101740007E42904199410A0303D2641EB61940417A
:1017500049410027641E24054208AE417841614199
:10176000F0BC7047CA0F00D0494203105A400DD058
:1017700004B500D3404200F009F8009AD20701D323
:101780004942124200D5404204BD0000094214D033
:1017900088420FD30122030C01D10004120400235C
:1017A00000185B418B4200D35B1A5241F8D31900F9
:1017B0001000704701000020704708B500F0DAF80B
:1017C00008BDF0B40E005E400125ED072E40B44682
:1017D000AE0ADF184C18F4423BD2F74241D2640DF6
:1017E00043D07F0D38D0E41BC902DB0229432B43D1
:1017F000CF0ADB0A0600B61A9F4104D2641EB6194E
:101800007F41B6185F416812800D24180018844289
:1018100022DAE80C0021B6197F41B61A9F4102D2A4
:10182000B6185F413F1C40414941F4D3241C21DDDF
:101830002405B6197F41B61A9F4105D33743C60721
:1018400037430026012F7041614166463143F0BCA9
:101850007047FCD1F74205D20020C1434905490831
:10186000F3E704D00020C143F1E77F0DFAD0002058
:101870006146ECE72442FAD1401C61410F03F6D3E4
:101880000020E2E7F446002804D4494200F013F8AF
:10189000404260474042002905D45FD000F00BF879
:1018A000404249426047494200F005F849426047DA
:1018B00003460B43E6D40022030A8B420BD20309F2
:1018C0008B4219D243088B422ED2411A00D20146D4
:1018D000524110467047FF2209023FD012068B4248
:1018E00005D3121209028B4201D312120902030915
:1018F0008B4219D300E0090AC3098B4201D3CB0103
:10190000C01A524183098B4201D38B01C01A524144
:1019100043098B4201D34B01C01A524103098B4248
:1019200001D30B01C01A5241C3088B4201D3CB0033
:10193000C01A524183088B4201D38B00C01A524116
:1019400043088B4201D34B00C01A5241884200D356
:10195000401A5241CFD201461046704708B500F0F8
:1019600009F808BD80B5012000F006F801BDFEE7CA
:101970007047FEE77047FEE780B500BF00BF024A30
:1019800011001820ABBEFBE7260002001CB568461C
:1019900001210170954C21784170002322001C32F6
:1019A0006946606800F068FC01222100904800F060
:1019B0005DFE13BD8F4B036018005430086080201B
:1019C0001060704718B5A7B0684600BF1FA110226D
:1019D000FFF76CFC854C0021684601F091F96060CE
:1019E00020A800BF1DA11C22FFF760FC002120A839
:1019F00001F04FF9A06019A81FA11C22FFF756FCA7
:101A0000002119A801F045F9E06012A821A11C22CB
:101A1000FFF74CFC002112A801F03BF920610BA854
:101A200023A11C22FFF742FC00210BA801F031F991
:101A3000606104A825A11C22FFF738FC002104A83E
:101A400001F027F9A06128B010BD000020000000BF
:101A50000400000000000000000000009456000890
:101A6000E91A0008000000000000000080000000EB
:101A70000000000000000000A45600085F1B0008E2
:101A8000FDFF0000000000008000000000000000DA
:101A900000000000B05600087D1B0008FDFF00009C
:101AA00000000000800000000000000000000000B6
:101AB000B8560008611F0008FDFF0000000000008C
:101AC000800000000000000000000000C456000874
:101AD000CD1F0008FDFF0000000000008000000096
:101AE000000000000000000070B50021424801F035
:101AF00054F93C21414801F0DDF901F0EDFC0028EA
:101B000001D001F085FC3E4D3E4EB08AB189FFF711
:101B100029FE28603C4C15E028685843208081B29B
:101B20003A4A1160A08008E0B3891900B0884A439E
:101B30009042F1DAFFF716FE2860286860800120E5
:101B400001F0D6F828682080228860889042F4D07E
:101B50002F488242E8DB002028602080EDE738B57E
:101B6000234D224C01222100280000F07FFD002897
:101B7000F8D1012001F0BCF8F4E70000E0B501F075
:101B8000EDFC00BF23A7204D26A6FA20800001F01F
:101B9000AFF8802109029020C00501F06AFE002103
:101BA000002001F0C7FC300001F015FD00214820A5
:101BB00001F0C0FC0421288801F017FD012100205C
:101BC00001F0B8FC380001F006FD0121482001F0C9
:101BD000B1FC2888FFF7D8FC9DA20CCAFFF7B5FB23
:101BE000FFF7BAFC042101F000FDCEE74C1A0020FB
:101BF00030180020AC1300200C1A0020CC19002053
:101C0000240400404C1900206C1A002034200040AD
:101C1000B70B0000566F6C746167655B6D565D3A7B
:101C200000000000456E636F6465723A00000000BA
:101C300010B50200002300201478002C11D0401CA5
:101C4000042801DB002010BD84000C19241F226031
:101C500014783D2C06D0002C04D00D2C02D0521C40
:101C6000F6E710BD0D2CFCD0002CE5D01370521CF3
:101C700014783D2CE0D1FAE73EB5040001F06EFC8B
:101C80000221002001F056FC200001F0A4FC68466F
:101C90000021002206C069462000FFF7C9FF022884
:101CA00000D0D0E0019D694C6BA1009801F008FEC6
:101CB00000280DD12800FFF7CBFA032862D32800B3
:101CC00001F0E0FEA08301F0C0FBA18B65A0A4E0C1
:101CD00069A1009801F0F4FD00280DD12800FFF75C
:101CE000B7FA03284ED3280001F0CCFEA08401F0FF
:101CF000ACFBA18C63A090E067A1009801F0E0FD2F
:101D000000280DD12800FFF7A3FA03283AD32800B2
:101D100001F0B8FEA08501F098FBA18D61A07CE0E8
:101D200065A1009801F0CCFD00280DD12800FFF737
:101D30008FFA032826D3280001F0A4FEA08601F024
:101D400084FBA18E5FA068E063A1009801F0B8FD5C
:101D500000280DD12800FFF77BFA032812D32800B2
:101D600001F090FEA08701F070FBA18F5DA054E010
:101D700061A1009801F0A4FD00280DD12800FFF713
:101D800067FA03285FD3280001F07CFEA08201F0EF
:101D90005CFBA18A5CA040E060A1009801F090FD8E
:101DA00000280DD12800FFF753FA03284BD3280051
:101DB00001F068FEA08001F048FBA1885AA02CE049
:101DC0005DA1009801F07CFD00280DD12800FFF7EF
:101DD0003FFA012837D1280001F054FEA08101F01C
:101DE00034FBA18957A018E05AA1009801F068FDC2
:101DF000002815D12800FFF72BFA032823D3280049
:101E000001F040FEA4899D4D80B22100FFF7AAFC9D
:101E100028602968614300BF9FA001F063FE10E0C5
:101E2000A1A1009801F04CFD00280CD12800FFF77B
:101E30000FFA002807D001F039FB00BF9DA001F088
:101E400051FE00203EBD01203EBD00004C19002087
:101E50008FC2F5285C8F0A4061742B7072657365C0
:101E60007431000050726573657420312069733AD3
:101E700025640D0A0000000061742B7072657365A3
:101E80007432000050726573657420322069733AB1
:101E900025640D0A0000000061742B707265736583
:101EA0007433000050726573657420332069733A8F
:101EB00025640D0A0000000061742B707265736563
:101EC0007434000050726573657420342069733A6D
:101ED00025640D0A0000000061742B707265736543
:101EE0007435000050726573657420352069733A4B
:101EF00025640D0A0000000061742B646566707231
:101F00006573657400000000446566507265736512
:101F1000742069733A25640D0A00000061742B7304
:101F200063616C65000000005363616C6520697338
:101F30003A25640D0A00000061742B7370656564B6
:101F40000000000053706565642069733A25640DD4
:101F50000A00000061742B6D616E75616C000000F9
:101F60007CB500BF58A6464C464D0022D243694678
:101F7000686800F0C5F968464078002100280AD05A
:101F8000FF2816D02278231D9B1818700D2800D129
:101F90001970521C22700A280BD12170201DFFF7E6
:101FA0006BFE002802D000BF49A000E0300001F025
:101FB00099FD012000F09CFED7E7042805D13248A6
:101FC0000178002901D1012101707047F8B5002482
:101FD0002A4E2E4D15E0A88FA989FFF7C3FB0100FB
:101FE000316000BF58A006E0A88EA989FFF7BAFBB0
:101FF000306001004DA001F075FDFA20400000F0B6
:1020000077FE214800780028F7D000201E4908708C
:10201000641CE0B2062801DB012409E0012807D096
:10202000EBD3032818D00DD30528D4D0DCD3E4E7B4
:10203000AF8B3800A989FFF795FB3060390000BFEE
:1020400025A0D8E7AF8C3800A989FFF78BFB30605B
:10205000390000BF27A0CEE7A88DA989FFF782FB32
:10206000306001002AA0C6E701B5094B012269468C
:10207000084800F08BFA009802BD000024040040DC
:10208000001600204C1A00207C1A00204C19002059
:10209000FFFF0000301800204D616E75616C2069F3
:1020A000733A25640D0A000061742B666163746FD6
:1020B00072790000466163746F72792052657365AE
:1020C00074210D0A000000004F4B0D0A00000000B3
:1020D0004552524F520D0A00507265737320312ED3
:1020E000204163746976617465642069733A25647C
:1020F000200D0A00507265737320322E20416374E4
:102100006976617465642069733A2564200D0A005C
:10211000507265737320332E204163746976617445
:1021200065642069733A2564200D0A005072657356
:102130007320342E2041637469766174656420696C
:10214000733A2564200D0A00507265737320352E92
:10215000204163746976617465642069733A25640B
:10216000200D0A0038B505000C00002D01D172B613
:10217000FEE701F009FD2868E96B2A6C514340181D
:1021800068600020A8632868A8602868E96B491E79
:102190002A6C51434018E860280044300021C943AC
:1021A00001704170002C0BD12869002810D0280044
:1021B000103001F035FF00280AD001F0DFFC07E005
:1021C0002800103002F04AF82800243002F046F8C7
:1021D00001F0E6FC012032BD7CB5002801D172B6C9
:1021E000FEE71C00002C01D172B6FEE7002A03D0E6
:1021F000002903D172B6FEE700290DD148230093D0
:10220000009B482B0AD1069B01254626A555009424
:1022100000F024F8200076BD72B6FEE772B6FEE745
:10222000F8B504001600002C01D172B6FEE70F00CD
:1022300001D1482001E07843483002F05BF8050006
:102240000AD0330000204621685400952A00483205
:102250003900200000F002F82800F2BD80B503002C
:102260000298002900D102000260C36301640121C9
:10227000FFF778FF01BD0000FEB504001700002C39
:1022800001D172B6FEE70091002902D1206C00282E
:1022900027D11E00022E02D1E06B012823D102F0CB
:1022A00021F90190A06BE16B884201D3022E20D16D
:1022B0004520255632000099200000F0A6F801269E
:1022C0000020C043854210D1606A002812D020004F
:1022D000243001F0A5FE00280CD0002F0AD03E606B
:1022E00008E072B6FEE772B6FEE76D1C4520255485
:1022F00000E00026019800BF02F0F8F83000FEBDB3
:10230000F7B5040000260025002C01D172B6FEE7C7
:102310000F0002D1206C002808D101F02EFF002808
:102320000BD10298002808D072B6FEE772B6FEE71D
:10233000200000F0B5F801F08FFD01F025FCA06B46
:10234000002805D1029800280AD101F029FC47E0B5
:1023500005003900200000F090F86D1EA56341E0F3
:10236000002D03D1684601F089FE012501F018FC1B
:1023700001F06CFD01F008FC200044300021C9434D
:102380004422A2568A4200D10670012282568A4215
:1023900000D1467001F004FC02A9684601F074FE09
:1023A000002813D1200000F0B0F80028C0D0029916
:1023B0002000243001F020FE200000F071F801F030
:1023C0004BFD0028B9D101F0D9FBB6E7200000F0A1
:1023D00067F801F041FD200000F097F80028ACD02C
:1023E0000020FEBD2069002807D02000103001F039
:1023F00017FE002801D001F0C1FB01F0D1FB012044
:10240000FEBD01F0CDFB200010BDF8B504001000AA
:1024100000260027A56B226C002A08D1206800281E
:1024200027D1606801F0BAFE0700666021E006006F
:102430000CD1A068FEF726FFA068216C4018A060B0
:102440006168884215D32068A06012E0E068FEF75A
:1024500019FF216C4842E1680918E1602268914245
:1024600002D261680818E060022E02D1002D00D06F
:102470006D1E6D1CA5633800F2BD0B00026C002AB6
:1024800000D1704710B5C1688918C1604468A14285
:1024900001D30168C160C1681800FEF7F3FE10BDEA
:1024A000F8B5040001F070FB2700443701203D56C9
:1024B00068B2012819DB606A002816D02000243099
:1024C00001F0AEFD002801D001F012FE6D1EEFE715
:1024D0002069002815D02000103001F0A1FD00284F
:1024E00001D001F005FE761E08E00020C5437D7096
:1024F00001F056FB01F048FB4420265670B201283B
:10250000E6DA3D7001F04CFBF1BD10B5040001F0BE
:102510003BFBA06B441EA441E40F72E70000FEE702
:1025200038B5040014D0250070356868002803D140
:102530002870200001F0F8FF2420686020680168FE
:10254000012291430160200000F08CF9012801D1A3
:10255000012032BD606A002802D0200000F016FA87
:1025600020684168084A0A40426020688168082261
:1025700091438160FFE72068016801220A430260FD
:10258000200000F069FA32BDFFF7FFFFFEB507003B
:102590001C007030406820285CD10D000BD0160064
:1025A00009D0B86880214901884206D138690028DD
:1025B00003D1E80701D50120FEBD7020385C012859
:1025C00048D0012070217854002039007031C86053
:1025D000212039007031486001F0E4FF50217E5223
:1025E000390050314E80B96880225201914206D1A3
:1025F0003969002903D1029401900C0011E02900EF
:102600000025F8E721780185641C07E03868002C74
:10261000F8D12988C905C90D0185AD1C7088401EF7
:1026200070803E00503670880028029814D00090C8
:10263000019B00228021380000F048FA0028E5D0F4
:102640000320FEBD38007030202141600021017060
:102650000020FEBD0220FEBD019B00900022402113
:10266000380000F033FA0028ECD0E9E770B5030039
:1026700058331C6A202C41D100290BD0140009D0FA
:10268000846880256D01AC4206D10669002E03D115
:10269000CE0701D5012070BD1E7E012E2ED0012651
:1026A0001E7641651A805A8000219960FF22AC4253
:1026B00004D10469002C07D1134A05E0002C05D190
:1026C0000469002C00D07F229A8000E09980596232
:1026D00022221A6202689468264396608268AA429F
:1026E00004D10269002A01D1084A00E0084A9A6030
:1026F0001976006801689022520001E0022070BD46
:102700000A430260002070BDFF010000132C000886
:10271000D52B0008F8B504002368D86919689A68B1
:1027200000924F4F07404025ED4320220026002F06
:1027300009D187067CD58F067AD5216E002901D074
:1027400020008847F1BD009FFF0703D490277F003A
:102750000F406DD0C70706D5CF0504D501271F62EE
:10276000E36F1F43E767830709D5009BDB0706D5A7
:10277000022327683B62E36F04271F43E767430791
:1027800009D5009BDB0706D5042327683B62E36F6E
:1027900002271F43E76703070AD58B0602D4009B75
:1027A000DB0705D5082327683B62E76F3B43E367F8
:1027B000030507D54B0105D5930127683B62E36FFD
:1027C0001A43E267E26F002A48D0800606D58806E1
:1027D00004D5216E002901D020008847E06F4027F2
:1027E00021688968394002D1282101401BD020008E
:1027F00000F0BDF9206881680F4010D081680D405D
:102800008560E06E00280AD05F494163E06E01F008
:10281000CFFE002822D0E06E416B8847F1BD20003A
:1028200001F0EAFEF1BD200001F0E6FEE667F1BD31
:10283000070607D50F0605D5616E00290ED02000CA
:102840008847F1BD400609D5480607D518680540F8
:102850001D6062676666200001F0CFFEF1BD0000DA
:102860000F080000F8B505000026002000242968A4
:102870000A68914B1340AA681A432B6913436A698B
:102880001A43EB6913430B604A688C4B1340EA68A8
:102890001A434A608A688A4B1340AA691A432B6A12
:1028A00013438B601022874B99420FD186490968E8
:1028B0008907890F0DD0022906D003D3032909D136
:1028C000022207E0042205E0082203E0AF4B994210
:1028D00000D100220092AE4F80221202E96991429B
:1028E000009927D1002906D0022907D0042909D050
:1028F00008290DD014E002F0F4F805E069684808F2
:10290000A44A08E002F0D0F8696840004A0802E0F2
:102910006968480852008018FEF738FF80B200E06E
:10292000012401001039B94228D207400007400FA6
:10293000384320E0002906D0022907D0042909D015
:1029400008290CD012E002F0CCF805E069684808CC
:10295000914A06E002F0A8F869684A0801E069684F
:1029600048088018FEF712FF80B200E00124010041
:102970001039B94202D22968C86000E001242E66ED
:102980006E662000F2BD0000C12B00082421415CCE
:10299000C90706D501684A68804B1340826A1A430A
:1029A0004A602421415C890706D501684A687C4B4E
:1029B0001340C26A1A434A602421415C490706D584
:1029C00001684A68774B1340026B1A434A6024211E
:1029D000415C090706D501684A68734B1340426B96
:1029E0001A434A602421415CC90606D501688A68F9
:1029F0006E4B1340826B1A438A602421415C890626
:102A000006D501688A68134B1340C26B1A438A606B
:102A10002421415C490611D501684A68644B134082
:102A2000026C1A434A60026C80235B039A4205D110
:102A30004A68604B1340426C1A434A602421415C4F
:102A4000090606D501684A685B4B1340806C184341
:102A500048607047FFDFFFFFF8B5040000257030C5
:102A6000C56001F09FFD0700544E20680068000714
:102A700009D500963B00002280218903200000F048
:102A800025F800280DD12068006840070BD5009676
:102A90003B0000228021C903200000F017F8002825
:102AA00001D00320F2BD21007031202048608860F1
:102AB0000D700020F2BD0000F369FFFFFFCFFFFFA4
:102AC000FFF4FFFF0038014030100240FEB5089FC0
:102AD00080242401002506000191684602700293BB
:102AE0003068C069019901400198814201D10120FB
:102AF00000E0002069460978884236D10020C043B2
:102B00008742EDD001F04EFD0299401A874201D371
:102B1000002F0FD130680168564A0A4002603068C1
:102B20008168012291438160300070302021416032
:102B3000816017E0306801684907D1D5C16921403B
:102B4000CED00462306801684A4A0A4002603068A8
:102B50008168012291438160300070302021416002
:102B60008160C16005700320FEBD0020FEBD0168CC
:102B70000A68414B13400B6001688A6801239A433D
:102B80008A6020218167002101667047004400406F
:102B9000F0FF00000024F40000127A00FFFFFDFFA8
:102BA000FFFFFEFFFFFFFBFFFF7FFFFFFFEFFFFFCA
:102BB000FFFFEFFFFFFF9FFFFFFFF7FFFFFFFF019B
:102BC00080B5406A0100523100220A810A8001F07A
:102BD00013FD01BD10B50100603102688B69222B25
:102BE00012D1938C02005A3254881C40436D1C70E1
:102BF000436D5B1C43655A23C35A5B1E13805A22E4
:102C0000825A002A04D123E090690821014391618E
:102C100010BD10B50100603102688B69222B12D102
:102C2000938C02005A3254881C40436D1C80436DC3
:102C30009B1C43655A23C35A5B1E13805A22825A37
:102C4000002A04D104E0906908210143916110BD7C
:102C500002681368084C1C401460026893680124E1
:102C6000A343936020228A6100220A60FEF78EFE51
:102C700010BD00005FFEFFFFDFFEFFFF0100002030
:102C8000842900D0C81C704780B501F0B7F8002037
:102C900002BD38B584B004000D006069002815D06D
:102CA000A069002812D00820205EFFF7E7FFA16985
:102CB00002916169019100902B002269216860688E
:102CC00000F096FF0390039805B030BD0820205E09
:102CD000FFF7D4FF03A9019100902B00226992B263
:102CE0002168606800F0AAFF0128ECD00020EBE723
:102CF00080B5002800D1012001F066F8002002BD57
:102D000080B58268002A09D0C368002B06D0002154
:102D1000009141680068FFF75FFA02BD0022416838
:102D20000068FFF77DFA02BD10B5040001D1012053
:102D300010BD3D20205C002804D13C2160542000BF
:102D400001F0AEFF0EE000680121C2680A43C260D4
:102D500082685207520F062A02D0026811430160AE
:102D60000020704702203D216054211D206800F0A2
:102D7000D3F901203D216054002010BD10B504009E
:102D800001D1012010BD3D20205C002804D13C2150
:102D90006054200001F0CAFFE4E710B50400080009
:102DA00006D0042908D008290AD00C290CD010E03C
:102DB0002068C26802230AE02068C268042306E093
:102DC0002068C268082302E02068C2681023134309
:102DD000C3600122206800F0C7FA20680D498842CC
:102DE00008D00D49884205D00C49884202D00C49D0
:102DF000884204D1416C802212020A4342648168F5
:102E00004907490F062903D0016801220A430260DD
:102E1000002010BD002C0140004001400044014052
:102E200000480140F8B505000C00002D01D101203B
:102E3000F2BD3D20285C002804D13C2168542800C4
:102E400001F003FF02203D21685428688168264A6A
:102E50000A408260291D286800F05EF928688168B0
:102E60008369026A214E1E40A3683343A669360275
:102E70001E431F4F3740E3683B43E66936021E435B
:102E800023691F013743236A1B033B43AA26B2432E
:102E90006668164362691201324324680C438460F9
:102EA000286883612868026201203D21685400205F
:102EB000F2BD000010B50400002901D0042901D1A1
:102EC000012206E001220021206800F04DFA0122D3
:102ED0000421206800F048FA2068016801220A43B2
:102EE0000260002010BD0000F8BFFFFFFCFCFFFFE8
:102EF0000303FFFFF8B504002068002502260169DE
:102F0000314015D0C168314012D00221C94301615E
:102F1000012121778069800703D0200001F007FF9D
:102F200005E0200001F004FF200001F002FF2577FA
:102F3000206804270169394016D0C168394013D090
:102F40000421C943016126778069C02189000140BD
:102F500003D0200001F0EBFE05E0200001F0E8FEC8
:102F6000200001F0E6FE257720680826016931403F
:102F700014D0C168314011D00821C94301612777BD
:102F8000C069800703D0200001F0D1FE05E02000D9
:102F900001F0CEFE200001F0CCFE25772068102144
:102FA00002690A4016D0C268114013D01021C943EB
:102FB00001612677C069C0218900014003D020004B
:102FC00001F0B5FE05E0200001F0B2FE200001F0A6
:102FD000B0FE25772068012102690A4008D0C26846
:102FE000114005D00121C9430161200001F0EDFE2F
:102FF0002068802102690A4008D0C268114005D0CB
:103000008021C9430161200001F0EBFE20684021CE
:1030100002690A4008D0C268114005D04021C94366
:103020000161200001F0DEFE2068202102690A40D3
:1030300008D0C268114005D02021C9430161200099
:1030400001F0D1FEF1BDF8B504003C20205C012860
:1030500001D10220F2BD01203C23E05402203D2397
:10306000E0542C4F86020D00002A06D0042A15D009
:10307000082A25D00C2A34D044E0206800F084F8D7
:103080002068816908220A438261206881690422DC
:1030900091438161206881692A690EE0206800F00F
:1030A000AEF8206881690E438661206881690F400F
:1030B0008761206881692A6912020A43826121E0DE
:1030C000206800F0D0F82068C16908220A43C26174
:1030D0002068C16904229143C1612068C1692A69DD
:1030E0000EE0206800F0F1F82068C1690E43C66167
:1030F0002068C1690F40C7612068C1692A6912024E
:103100000A43C26101203D21605400203C216054EB
:10311000F2BD0000FFFBFFFFF0B50668804A814B5F
:10312000814C824DA84201D0A04206D17027BE43F7
:1031300037004E683E43A8420BD0A04209D07C4CD9
:10314000A04206D0984204D0904202D07A4CA042CD
:1031500003D1784C3440CE6826438024A6434C6982
:10316000344304608C68C4620C688462A84206D050
:10317000984204D0904202D06F4A904201D109692E
:10318000016301214161F0BDF8B5026A01239A4350
:103190000262036A426884697325AC430D68254363
:1031A00000950224A3438C681C435D4B5D4D5F4E2C
:1031B000B04206D0A84204D0984202D05E4FB84236
:1031C0000CD10827BC432700CC683C430427BC43F0
:1031D000B04206D0A84204D0984202D0564B984242
:1031E00005D1574B13404D691D438A692A434260FC
:1031F000009A8261496841630462F1BD000070B5C4
:10320000026A10239A430262026A436884694B4D42
:1032100025400C6824022C432025AA438D682D01EB
:103220001543424A904208D1802295432E00CA6835
:10323000150135434022954308E03A4A904205D0B3
:10324000374A904202D03C4A904206D13D4A1A4049
:103250004B698E691E43B300134343608461496820
:103260008163056270BD70B5026A374B134003621B
:10327000046A4268C56973239D430B682B43334D31
:1032800025408C6824022C43284DA84207D1304D9C
:103290002540CC6826022E432E4C344008E0214DB8
:1032A000A84205D01E4DA84202D0234DA84206D107
:1032B000294D15404A698E69164332012A434260FE
:1032C000C3614968C163046270BD30B5026A234BB3
:1032D00013400362036A4268C469184D25400C68B4
:1032E00024022C431E4D1D408B681B032B430F4DA6
:1032F000A84208D00B4DA84205D0094DA84202D0E3
:103300000D4DA84204D1174D15404A6992012A4338
:103310004260C46149680164036230BD000000007E
:10332000004401400040014000040040002C0140E6
:1033300000200040FFFCFFFF00480140FF8CFFFF22
:10334000FFFCFFFFFFF3FFFFFFFEFFFFFFFDFFFF9F
:10335000FFF7FFFFFFFBFFFFFFCFFFFFFFEFFFFFC9
:10336000FFDFFFFFFFBFFFFF10B5C906C90E036AED
:1033700001248C40A3430362036A8A401A43026219
:1033800010BDFEE710B55F490A68D207FCD42022C1
:103390000B68134000D00A604B6802241C434C6049
:1033A00088604868402303434B6008681040FCD0A5
:1033B0000A60486802229043486010BD30B501237E
:1033C000504A14681C40FCD120241568254000D0C8
:1033D000146055682B435360088010682040FCD06F
:1033E0001460506801218843506030BD4648474909
:1033F0000160091D8160091D0161091D8161091DAF
:103400000162091D8162091D0163091D8163704705
:1034100080B5FFF7EBFF3C4801680968818081684F
:1034200009688181016909688182816909688183EC
:10343000016A09688184816A09688185016B09686C
:103440008186816B0968818701BD38B52A4C2B487C
:1034500020602B482060FFF7C9FF2C48FFF792FF40
:10346000294D2968A888FFF7A9FFA968A889FFF74F
:10347000A5FF2969A88AFFF7A1FFA969A88BFFF713
:103480009DFF296AA88CFFF799FFA96AA88DFFF70D
:1034900095FF296BA88EFFF791FFA96BA88FFFF707
:1034A0008DFFE06880210143E16031BD80B51648A1
:1034B0001749818009218181E12189008182C82207
:1034C00052008283818464318185C8318186C8310C
:1034D0008187FFF7BAFF01BD80B50C4801680D4A2E
:1034E000116000680021C943884201D0012002BD5B
:1034F000FFF7DCFF002002BD0420024023016745E6
:10350000AB89EFCD0C2002404C19002000EC0008E4
:10351000DC050000741A002080B5534A0021FFE743
:103520001170507064200090022378214F4801F000
:10353000AFFC01BD10B5040008004D490C72487283
:103540005038C0B2FFF7E8FF2007000FFFF7E4FF95
:10355000210910200843FFF7DFFF10BDF8B5002751
:103560000024002600210020FFF7E4FF8025AD00A5
:10357000202000F011F8641CA0B2812805DB002493
:10358000761CF1B20020FFF7D5FF6D1EF0D1384850
:10359000052101724772F1BD1CB5354C40212170E7
:1035A00005228100081821180C31601CFDF76AFE05
:1035B0000020A071FA2080000090072322007821CB
:1035C0002A4801F065FC207A0830C1B2812900DB6D
:1035D0000520207213BD10B5040002E0FFF7DCFFE8
:1035E000641C20780028F9D110BD20B50500012900
:1035F0002FD036D3032916D020D3052901D006D3E6
:1036000020BD1C49FEF7C2F83030FFF7C5FF280087
:10361000FA218900FEF7BAF80A21FEF7B7F8080088
:103620003030FFF7B9FF28006421FEF7AFF80A2118
:10363000FEF7ACF808003030FFF7AEFF28000A2193
:10364000FEF7A4F80A21FEF7A1F808003030FFF7D2
:10365000A3FF28000A21FEF799F808003030FFF791
:103660009BFF20BD00000000721A002000190020FE
:10367000000000201027000080B5AE20FFF74CFFAF
:10368000D520FFF749FF8020FFF746FFA820FFF76E
:1036900043FF1F20FFF740FFD320FFF73DFF00202F
:1036A000FFF73AFF4020FFF737FF8D20FFF734FF89
:1036B0001420FFF731FF2020FFF72EFF0020FFF737
:1036C0002BFFA120FFF728FFC820FFF725FFDA20F6
:1036D000FFF722FF0220FFF71FFF8120FFF71CFFEB
:1036E000CF20FFF719FFD920FFF716FFF120FFF7D2
:1036F00013FFDB20FFF710FF4020FFF70DFFA42092
:10370000FFF70AFFA620FFF707FFAF20FFF704FF30
:1037100001BDFEE7FEB500220F2302932AE0052437
:1037200003E05C4CA042FAD10324B4402C43019D39
:103730002C60594D2E68DC4326404F68FF0300D5AE
:103740001E432E606E6826404F68BF0300D51E439F
:103750006E60AE6826404F68FF0200D51E43AE6023
:10376000EE6834404E68B60202D526001C00344391
:10377000EC60521C0C682300D34073D001239340AB
:1037800001932340F5D094006D462C704C68022CB8
:1037900001D0122C11D1D408A40005192C6A6E4650
:1037A00037781C263E40029FB740BC430F69BC4699
:1037B00037006646BE4026432E6206685400032743
:1037C000A740FD432E400F79BF07BF0FA7403743E7
:1037D00007604E68012E05D0022E03D0112E01D0B5
:1037E000122E10D186682E40CF68A74037438760DD
:1037F0004768019EB743BC464F68FE06F60F9640E9
:1038000067463E434660C66835408E68A6402E43F4
:10381000C6604C68E400ACD50124204D2D682543DA
:103820001E4E3560356825400195019D1C4D96085A
:10383000B600AD1901952D686E4637780C263E40CE
:10384000029FB740BD439027FF05B84201D1002435
:103850006BE7144FB842FBD0134CA04200D060E796
:10386000022462E7F7BD002A01D0816170478162BE
:10387000704742690A4000D00904816170470B4AD1
:103880001368034000D1704780B51060FEF795FBC8
:1038900001BD0000000C0048000401401810024067
:1038A00008000140000400480008004814040140DA
:1038B00002780B78002A2FD0401C491C9A422BD149
:1038C0008207F5D170B41F4CE5018A0726D104C8E0
:1038D00008C9161B96432E4208D19A42F7D070BCF5
:1038E00012BA1BBA9A4280414041704770BC12BA6A
:1038F0001BBA100E0BD0FF21100C084208D0100A82
:10390000084206D0D01A01D08041404170471B0ABE
:103910001B0A1B0AC01A7047D01A70470B784A78E6
:10392000120213438A7812041343CA78120613430F
:10393000091D04C8161B96432E42D7D19A42EDD0DA
:10394000CDE7000001010101F8B586B00C001500BB
:10395000002B01D0002119600290064600E0761C81
:10396000307801F013FC0028F9D1300001782D29BE
:1039700001D02B2903D16A461170401C02E02B2193
:103980006A4611700194002D03D4012D01D0252D1C
:1039900004DB002C4ED0029820604BE0002D0ADDA5
:1039A000102D16D10178302913D1417820220A43F5
:1039B000782A0ED10AE00178302901D00A2508E0E2
:1039C000417820220A43782A02D11025801C00E089
:1039D0000825059000E0401C01783029FBD0002428
:1039E000049000BF2BA26B465A702F00039E050067
:1039F000039407E0039469464978461AF6B27C437B
:103A0000A4196D1C287801F0CAFB00BF21A33A005D
:103A100001001800FDF724FC0028EBD1390030002C
:103A2000039E059AAA4207D10198002802D0029865
:103A300001990860002023E0049AAA1A1FA35B5C86
:103A4000D21A002A11D405DC201A03D3FDF79EFEFA
:103A5000B0420AD000BF00BF0698002802D0012063
:103A6000069908600024E44305E0684600782D28A4
:103A700001D1604204000198002800D005602000B8
:103A800007B0F0BD80B5FFE700230A220021FFF751
:103A90005BFF02BD3031323334353637383961623D
:103AA000636465666768696A6B6C6D6E6F7071726E
:103AB000737475767778797A00000000000021151C
:103AC000110E0D0C0B0B0A0A09090909090808084F
:103AD0000808080807070707070707070707070772
:103AE000070000000EB4C0B5020003A8019000203A
:103AF000009001AB0121044878440C30FCF7DAFA5D
:103B0000029906B0084700BFCB1C000010B50300A7
:103B10000C3B802464049C6059602F491960203854
:103B20000260203810BD00002C4800680021C94305
:103B3000884201D072B6FEE772B6FEE738B5284873
:103B40000168FF2212040A4302600168FF22120684
:103B50000A430260234D00242C60AC6022480068B8
:103B6000FA218900FDF712FE401E686007202860D8
:103B70001A48046000F0A5FC002032BD80204005FA
:103B80001A49086006E0000072B614480168491C32
:103B9000016000BFBFF34F8FBFF36F8F704700000E
:103BA0000E480168002901D172B6FEE7491E016086
:103BB000002900D162B6704710B500F093FC0400F4
:103BC00000F098F9002803D08020400507490860DC
:103BD000200000F08BFC10BD293B00080C050020E4
:103BE00020ED00E010E000E01C05002004ED00E006
:103BF000F0B585B00B9D002D01D172B6FEE70C9C8F
:103C0000002C01D172B6FEE754260096009E542E79
:103C100001D072B6FEE70A9E256302255127E555BD
:103C200000250395029404AD0195009600F036F846
:103C3000200000F073F8049805B0F0BDF6B585B02B
:103C400007000C001D00900000F054FB060021D07E
:103C5000542000F04FFB0490002818D00D9A0C9BC4
:103C600021003800049C26630024049E5127F4554B
:103C70000394049C0294019200932B006A46128BD9
:103C800000F00CF8049800F049F8012004E030003E
:103C900000F0AEFB0020C04307B0F0BDF9B581B025
:103CA0000A9C206B920087183F1F072087437807E4
:103CB000002500913426009909180A7823189A558E
:103CC0000978002902D0401C1028F4D3089E432113
:103CD0006554062E00D90626E6626664200044304C
:103CE0004560201D00F0C9FA2000183000F0C5FA28
:103CF00024610720801BA06164622000443085603D
:103D0000200044300573029A01993800FFF7FEFE47
:103D100020600998002800D00460F7BDF8B50400C1
:103D2000FFF732FF334DE86C401CE864324FA86A5D
:103D3000002825D1AC62E86C01282AD10026142085
:103D40007043381800F08AFA761C072EF7D3280043
:103D5000743000F083FA2E008836300000F07EFACE
:103D6000280000F07BFA2800143000F077FA2800D1
:103D7000383000F073FA28007430E8622E6308E0EF
:103D8000A86D002805D1E06AA96AC96A884200D3F3
:103D9000AC62A86E401CA866E06A696D814200D2E0
:103DA0006865211D14225043381800F069FAFFF7A6
:103DB000F7FEA86D002806D0A86AC06AE16A8842AA
:103DC00001D2FFF7DBFEF1BD80B500280FD0094915
:103DD0000A6F002A01D072B6FEE70A6F521C0A670A
:103DE000002100F00FFA00F037F8002801D1FFF7AA
:103DF000C5FE01BD08170020A417002010B586B02D
:103E000000240594049403AA04A905A8FDF7D2FD93
:103E1000059802900498019000940023039A00BF33
:103E200008A19548FFF7E4FE002809D072B65E4865
:103E30000021C943C166012181650465FFF77EFE4B
:103E400006B010BD49444C45000000005648016FC3
:103E5000491C016770470000F8B50027002600974D
:103E6000514C206F002801D172B6FEE7FFF78CFE9F
:103E7000206F401E2067206F002837D1E06C00289B
:103E80001BD133E0E068C6683000183000F01EFA3D
:103E9000301D00F01BFAF06A616D814200D260654E
:103EA000311D5B4A14235843101800F0E9F9F06AF9
:103EB000A16AC96A884200D32566012520680028C6
:103EC000E0D1002E01D000F04AF9E66D002E07D0B7
:103ED00000F010F8002800D02566761EF8D1E765BE
:103EE000206E002802D00095FFF748FEFFF758FE2D
:103EF0000098F2BDF8B500252B4C206F00284AD160
:103F0000276D7F1C27650ED1E06A0068002801D06C
:103F100072B6FEE7E06A216BE1622063606E401CCE
:103F2000606600F01CF9E06E874227D31BE0301D6D
:103F300000F0CCF9B06A002803D03000183000F04F
:103F4000C5F9F06A616D814200D26065311D304A69
:103F500014235843101800F093F9F06AA16AC96A53
:103F6000884200D30125E06A0068002810D0E06A8A
:103F7000C068C66870688742D9D2E066A06A2449E2
:103F8000C06A142250430858022807D3012505E0CF
:103F90000020C043F1E7E06D401CE065206E002882
:103FA00000D001252800F2BD0817002010B57A487E
:103FB000016F002902D00121016610BD0166416D2B
:103FC00000E0491E124A14234B43D2181368002BF9
:103FD00003D10029F5D172B6FEE753685B685360E0
:103FE00014000834A34201D15B6853605268D26860
:103FF0008262416510BD000010B50C00002801D19F
:1040000072B6FEE76449896A183100F045F901E0AB
:10401000A41700200121200000F0F4F810BD0000DA
:1040200038B5C068C568002D01D172B6FEE728001A
:10403000183000F04BF9584C206F00280DD1281D86
:1040400000F044F9E86A616D814200D26065291D83
:10405000694A14235843101802E02900183120003F
:1040600000F00EF9A06AC06AE96A884202D2012013
:10407000206632BD002032BDF940000846494A6E34
:104080000260096D41607047FEB50500002D01D149
:1040900072B6FEE70E00002E01D172B6FEE7FFF702
:1040A00073FD3D49086D0290686801900298019A7D
:1040B000801A0090326800240020C043824213D04E
:1040C0004B6E2F68BB4203D0029B019FBB420AD2BA
:1040D000009B934206D2D01A3060486E2860086D6B
:1040E000686001E034600124FFF75AFD2000FEBD46
:1040F000012029490866704770B53F4C264D11E0F4
:10410000FFF742FD286AC668301D00F0DFF8E86C52
:10411000401EE864686B401E6863FFF741FD300095
:1041200000F00AF8686B0028EAD120680228F9D369
:10413000FFF724FDF6E7000010B504005120205CD5
:10414000002806D1206B00F053F9200000F050F950
:1041500010BD0128F9D00228FAD072B6FEE70E4849
:10416000C16A0968002902D10021C94303E0C16A7C
:10417000C968C9684968C16670470748816D0029E8
:1041800001D101207047006F002801D10220704743
:1041900000207047000000000817002038B5040018
:1041A0000020002C27D0164DA96A8C4201D072B68F
:1041B000FEE7A16C002901D172B6FEE7491EA16499
:1041C000E26A636C9A4216D0002914D1201D00F0D7
:1041D0007DF8606CE0620721081AA061E06A696DF1
:1041E000814200D26865211D044A142358431018E7
:1041F00000F046F8012032BDA4170020A4170020CB
:1042000008170020F8B504000E00134D2F6DA86AA2
:10421000001D00F05BF80020C043844208D1002E4E
:1042200006D0A86A011D2800383000F029F8F1BD39
:104230003C19A86A4460BC42A86A04D2011D286BDC
:1042400000F02AF8F1BD011DE86A00F025F8E86EDB
:10425000844200D2EC66F1BD08170020010008314D
:1042600041600021C943816001000831C160010043
:104270000831016100210160704700210161704730
:1042800042684A6093688B609368596091600861E6
:104290000168491C0160704730B50A680023DB43A0
:1042A0009A4201D1036907E00300083300E02300CC
:1042B0005C682568AA42FAD25A684A6091608B60AD
:1042C000596008610168491C016030BD016982685C
:1042D00043689A60426883685A604A68824201D1A2
:1042E00082684A60002202610868401E086008680F
:1042F0007047FEE7FEB50700002401940294FFF723
:10430000A5FD07255B4EB06800281ED15A49300034
:1043100018300090024630001830284204D0D21DD8
:10432000AA43881A009941183260746050180838FE
:10433000A843B06044600460811A51601060506806
:104340003061F0608020000670617069384031D1C2
:10435000002F2FD008372F4207D0380008302F40C9
:10436000C71B2F4201D072B6FEE7002F22D0F068A3
:10437000B8421FD3320031684868B84223D2086877
:10438000002820D00A000100F6E73A1D115078609D
:10439000009800F04BF87868F168091AF16032690A
:1043A000914200D231617169014379603C600198AA
:1043B00005400295FFF750FD0298002801D072B623
:1043C000FEE70198FEBD38000F00B1688F42F1D0C2
:1043D000116808310191396811607968091A112949
:1043E000D9D33A1800922A42CFD072B6FEE7000025
:1043F00038B5050019D0083D68681E4C616908424F
:1044000001D172B6FEE72A68002A01D072B6FEE733
:1044100088436860FFF71AFDE06869684018E0604B
:10442000280000F003F8FFF717FD31BD30B5114A41
:10443000110000E019000B688342FBD34B68CC18D5
:10444000844203D1406818184860080044680B682B
:1044500005199D4208D19268934204D05A68A21867
:1044600042601B6800E013000360814200D00860D6
:1044700030BD0000E8050020AC0D000080F3088886
:104480007047EFF309801B4B1A6820381060F0C0AA
:1044900044464D4656465F46F0C008B572B6FFF733
:1044A00085FD62B60CBC116808681030F0C8A046E3
:1044B000A946B246BB4680F309882038F0C81847A1
:1044C00070470C4B19680868203080F30988022077
:1044D00080F31488BFF36F8F3FBCAE4608BC04BCAA
:1044E00062B61847EFF3108072B6704780F31088F9
:1044F000704700003017002080B527482749016029
:1045000096218901416000218160C16001610C2216
:1045100042618161C16101624162FEF701F80028D8
:1045200001D000F05DFC01BD10B586B0040001A80B
:10453000142100F03DFE2068184988422AD118480D
:104540008021C90142680A434260426811400091DB
:1045500000998021890202680A43026000680140D4
:1045600000910098C020C00001900220029000201D
:104570000390032004900120059001A99020C0051C
:10458000FFF7C8F8002203211B2000F048FE1B2083
:1045900000F049FE06B010BD301800200038014080
:1045A0001410024001484068704700BF1005002009
:1045B00070B50022002401212123C35C022B03D00B
:1045C00004228263012415E003681D680E26B543AA
:1045D0001D6003681D688D431D60036C01259D40AF
:1045E000C36B5D602123C15420214254416B0029DB
:1045F00000D08847200070BD70477047F8B50400B0
:1046000019D0B44D2078C00717D58027BF0268683D
:104610000C210140042909D068680C2101400829B7
:1046200040D168687908084088423BD12868074033
:1046300003D06068002800D11FE12078800719D5D9
:1046400068680C21014007D068680C2101400829E6
:104650005ED16868C0035BD42868800703D5E06832
:10466000012800D009E12868F82188432169C900A0
:10467000014329602078000774D5E0690028686A42
:1046800068D0012101436962FFF78CFF0600686A68
:10469000800700D5F3E0FFF785FF801B0228F6D9DD
:1046A0000320F2BD6168012902D1286879080BE076
:1046B000BB48BC4A00290AD0052908D128687900DE
:1046C000014329602868D1430143296005E0296836
:1046D0000A402A60296808402860606800280BD0DA
:1046E000FFF760FF060028683840A6D1FFF75AFFA1
:1046F000801B6528F7D3D3E7FFF754FF060028682F
:1047000038409AD0FFF74EFF801B6528F7D3C7E7E4
:10471000E068002828680ED0012101432960FFF7D6
:1047200041FF0600286880079DD4FFF73BFF801BF0
:104730000228F7D9B4E7012188432860FFF732FF48
:1047400006002868800795D5FFF72CFF801B0228FC
:10475000F7D9A5E7012188436862FFF723FF060028
:10476000686A800700D48AE0FFF71CFF801B0228DC
:10477000F6D995E70420C0430122D24300290AD08C
:10478000052908D1286A042101432962286A0121E8
:104790000143296205E0296A0A402A62296A084021
:1047A0002862814FA06800280CD0FFF7FBFE0600AE
:1047B000286A800700D595E0FFF7F4FE801BB84219
:1047C000F6D36DE7FFF7EEFE0600286A800700D4F7
:1047D00088E0FFF7E7FE801BB842F6D360E7FFF7FB
:1047E000E1FE801B022800D897E059E7FFF7DAFEC8
:1047F000801B022800D8AEE052E70421C94388425A
:10480000686B03D10421884368638AE00421014373
:104810006963686B012188436863FFF7C3FE060084
:10482000686B800767D5FFF7BDFE801B0228F7D9AC
:1048300036E701402960FFF7B5FE040028688001D3
:1048400000D4AAE0FFF7AEFE001B0228F6D927E746
:10485000012812D06868E96A802252020240636A25
:104860009A420AD10907090FE26A914205D1F02163
:1048700089030140A06A81425BD00120F2BD20780B
:10488000400736D50020009080204005E9690140AE
:1048900008D1E9690143E961E9690840009000989D
:1048A0000120009094480068C00515D49248006823
:1048B000A90D014390480160FFF774FE06008E4881
:1048C0000068C00508D4FFF76DFE801B6528F6D38D
:1048D000E6E600BF00100240A168012900D049E7C8
:1048E000286A55E70098002803D0E8698349014009
:1048F000E9612078C0061AD56069F827FF430128CE
:1049000000D07AE7686B042101436963686B012179
:1049100001436963FFF746FE0600686B800700D419
:104920005DE7686B0740A069C00038436863206A90
:10493000002832D069680C220A40082A88D07049C1
:104940000228286800D074E701402960FFF72AFE9A
:1049500006008027BF042868384000D046E7E86A90
:104960000F218843E16A0143E962686871490140A7
:10497000A06A0843616A01436960286879080143B5
:104980002960FFF70FFE04002868384005D1FFF7C3
:1049900009FE001B0228F7D982E60020F2BD0000C4
:1049A000FFFFFBFFFFFFFEFF89130000F8B50400C7
:1049B00078D0009160480068C107C90F0098814213
:1049C0000CD25D48016801229143009A0A430260BB
:1049D0000068C107C90F0098814263D12168574D13
:1049E000022001420CD0490704D56968E022D200B8
:1049F0000A436A606968F0229143A2680A436A60C8
:104A00000127216839403DD06168012902D1286819
:104A1000800303E0022903D12868800103D441E028
:104A20002A6810403ED068680322904301436960C1
:104A3000FFF7B8FD060068680C210140606880003F
:104A400081421FD0FFF7AEFD801B3D498842F2D363
:104A50000320F2BD2078400705D568683949014038
:104A6000E0680843686000F01FF837496A6812067A
:104A7000120F895CC84035490860002000F0E2FB55
:104A80000020F2BD2C48009902683A409142E1D2E0
:104A90000168B943009A0A43026000680740009821
:104AA0008742D7D00120F2BD294B196829480C2232
:104AB0000A40082A00D0704730B50F2228A48D0C78
:104AC0001540645D9B6AC90307D500BF28A11A4041
:104AD000895CFCF75BFE604330BD20001E49484303
:104AE00030BD1A4800681D49194A12685205520F14
:104AF000895CC8407047000000700040FFFFFFEF76
:104B0000FFFFFFFE10B507220260114A13689B07E2
:104B10009B0F43601368F0241C4084601268E023FC
:104B2000DB001340C36004480068C207D20F0A606C
:104B300010BD0000FFFFC2FF002002400010024035
:104B400089130000FFF8FFFFFC5700081C05002038
:104B50000410024000127A0000093D003858000895
:104B600002030405060708090A0B0C0D0E0F1010AE
:104B70000102030405060708090A0B0C0D0E0F10AD
:104B800030B58BB002A8242100F012FB65A003C849
:104B90006A4603C25B4C5C48206000256560A560E6
:104BA0005A48E0602561A56103200290022003902D
:104BB00001200490059506950795089009950A959A
:104BC00002A92000FEF72EF9002801D000F008F914
:104BD000009501956946200000F072FB002801D085
:104BE00000F0FEF80BB030BD30B587B068461C2130
:104BF00000F0DEFA464C4748206000256560A5605D
:104C00004248E0602561A5612000FEF78DF800288C
:104C100001D000F0E5F82000FEF7B0F8002801D040
:104C200000F0DEF8602000900195029504950022C6
:104C300069462000FEF707FA002801D000F0D0F8FE
:104C4000200000F03DF807B030BD10B586B004007C
:104C500001A8142100F0ACFA20682B4988421DD12C
:104C60002D4902208A6802438A608A6802400092C5
:104C7000009A02040B6813430B6009680A40009213
:104C80000099C0210191029000200390049001201E
:104C9000059001A99020C005FEF73CFD06B010BDAF
:104CA00081B000681B49884208D1880D1B490A68F9
:104CB00002430A60096808400090009801B07047FC
:104CC00010B586B0040001A8142100F071FA206824
:104CD0001049884214D18020C0020F490A6802435B
:104CE0000A60096808400090009802200190029034
:104CF000002003900490059001A90948FEF70AFDE1
:104D000006B010BDCC19002000040040B80B000014
:104D10000C1A002000200040141002401C10024019
:104D200000040048000000000000000070477047C9
:104D30007047704780B500F0F5FA00F014F800F005
:104D400001FBFFF751FFFFF71BFFFFF7D5FB00F05B
:104D500047FB642000F0A2FBFEF78EFCFCF732FE5E
:104D6000FDF792FFFEE738B594B008A8302100F0B7
:104D70001FFA6846102100F01BFA04A8102100F069
:104D800017FA03200890012009900B9010200C9036
:104D90000224109400031190000112900025139535
:104DA00008A8FFF72BFC07200090019402950395BB
:104DB00001216846FFF7FAFD21200490069507952A
:104DC00004A800F07FFB15B030BD0068034988429D
:104DD00000D0704780B500F0F3FB01BD002C01400E
:104DE000704770477047704770B5040001D10120CB
:104DF00070BD2500403500266878002803D12E704C
:104E0000200000F014FB2420687020680168012253
:104E10009143016060686C4901402068016121682C
:104E20006A488A6802408A60E1680129A16801D164
:104E3000C24301E0842212020A4321688A60E168C9
:104E4000022903D1802109012268516021684A6842
:104E50005F4B13434B602168CA681040C8602069EB
:104E600061690143A069000208432168C860E069E4
:104E7000216A0143206801602068016801220A4319
:104E800002606E60202068702663AE70002070BDE6
:104E9000FEB504000F0016001D00403040782028A9
:104EA00076D14020205C012872D00120402160543E
:104EB000FFF778FB0190009019230122D103200015
:104EC00000F09CF800286CD121202100403148706E
:104ED00010202100403188700020210040314860BE
:104EE0006662658560633B48089E618DFF290BD92A
:104EF000FF212185009080235B04FF2239002000E0
:104F000000F02FF9019D11E0628D22850090802331
:104F10009B04D2B2F2E7FF2020850020009080237E
:104F20005B04FF223900200000F01BF9608D00288F
:104F300030D02A003100200000F08EF8002830D157
:104F4000606A007821688862606A401C606222485A
:104F5000618D09186185218D08182085618D0029D2
:104F6000E4D00004E2D1009533000022802120002B
:104F700000F044F8002814D1608DFF28CBD8628D52
:104F800022850020009080239B04D2B2CAE70AE069
:104F90000220FEBD31002A00200000F085F8002824
:104FA000F5D00120FEBD20202168C86121684A6833
:104FB0000A4B13404B60210040314870002088703C
:104FC0000870FEBD00000000FFFFFFF0FF7FFFFF45
:104FD0000080000200200080FFFF000000E800FECB
:104FE00000688169890701D50021816201218269F8
:104FF0000A4002D18269114381617047F8B51E00F1
:10500000069B002405000F0068460270069328687E
:1050100080693840B84201D1012000E00020694693
:105020000978884216D10020C0438642EFD0FFF7AE
:10503000B9FA0699401A864201D3002EE7D128001A
:105040004030202142680A434260417084700470FD
:105050000120F2BD0020F2BD70B504000D00160065
:105060002068806980071DD432002900200000F0EC
:105070003FF8002814D10020C0438542F0D0FFF74C
:1050800091FA801B854201D3002DE9D120004030E8
:10509000202142680A434260417000218170017002
:1050A000012070BD002070BDF8B5202504000E0061
:1050B000170020688069284018D13A00310020008C
:1050C00000F016F800280FD1FFF76CFAC01B8642DB
:1050D00001D3002EEDD120004030416829434160CA
:1050E00045700021817001700120F2BD0020F2BDE9
:1050F000F8B5102403689B6923401ED005000F00FB
:105100000092202628688169314018D10020C043D0
:105110008742F7D0FFF746FA0099401A874201D339
:10512000002FEFD128004030416831434160467084
:105130000021817001700120F2BD0020F2BDC46128
:105140002868C6612800FFF74BFF286841680D4AB0
:105150000A40426028004030416804220A4342600D
:10516000E5E7F0B5059C00684568660D064F3743D6
:10517000BD438905890D294312040A4313431C4387
:105180004460F0BD00E800FEFF63FF0310B50400BB
:10519000FBF7E8FF01002000096A884710BD10B541
:1051A0000400FBF7DFFF01002000896A884710BD7B
:1051B0000022FFE71300103906D330B414001500A5
:1051C00010393CC0FCD230BC490700D30CC000D51C
:1051D00004C0890002D30280801C002900D502701F
:1051E0007047FEE710B5C20018231340FF249C400F
:1051F000E2438907090E9940030004D40E489B0836
:105200009B00C01806E00D4B0007000F083880080F
:105210008000181803681A401143016010BD80B562
:10522000FFF7E0FF01BD010005D40121C006C00E5B
:10523000814003480160704700E400E01CED00E09D
:1052400000E100E010B586B0010000220D20FFF75C
:10525000E6FF0D20FFF7E7FF8020000113490A68F1
:1052600002430A60096808400090009801A902A85A
:10527000FFF748FCFFF735FC0D4C0E4921600E4945
:10528000E1600E49FCF782FA401E60600020206158
:10529000A0602000FDF748FD002803D12000FDF7A5
:1052A00052FD00E0012006B010BD000018100240C1
:1052B0008C190020002C0140E703000040420F0041
:1052C000F0B53C22825C012A01D10220F0BD02002F
:1052D0003C320123137002243D25445505686E6855
:1052E000AC687027BE430F6837436F6005680A4E8D
:1052F000B54205D0094EB54202D0094EB54204D19F
:105300008026B44349682143A9603D2143540020CD
:105310001070F0BD00000000002C014000040040AF
:105320000040014080B50648016810220A4302602F
:105330000020FFF787FF00F04BF9002002BD0000BE
:105340000020024070B586B001A81421FFF730FF9D
:105350008021C9031F4802680A43026002681140A5
:10536000009100998021890202680A430260026864
:105370001140009100998021C90202680A4302602D
:105380000068014000910098802424029026F605D0
:10539000002221003000FEF766FA042001900E483A
:1053A00002900025039501A90C48FEF7B3F901947A
:1053B000012002900395049501A93000FEF7AAF997
:1053C000002203210620FFF72AFF0620FFF72BFF0C
:1053D00006B070BD14100240000011100004004817
:1053E00010B5294C29482060294860600020A06041
:1053F0000121E16020616061A061E0612062200024
:10540000FFF7F2FC002801D0FFF7EAFC00212000A2
:1054100000F0FAF8002801D0FFF7E2FC002120009C
:1054200000F00FF9002801D0FFF7DAFC10BD10B52D
:1054300086B0040001A81421FFF7BAFE20681349C2
:1054400088421FD18020C002124C21680143216094
:105450002168084000900098C0200190122002901E
:105460000120039003210491059001A90A48FEF749
:1054700051F980208003A1680143A160A168084020
:105480000090009806B010BD0019002000540040A4
:105490000E090020141002400004004838B5050031
:1054A000FFF780F804000020C043854202D0044882
:1054B00000782D18FFF776F8001BA842FAD331BD0B
:1054C00010050020F8B50700374C3868C00357D5E1
:1054D00000200090802040052168014008D121680B
:1054E000014321602168084000900098012000904D
:1054F0002E4E3068C00517D43068A10D01433160CD
:10550000FFF750F805003068C0050DD4FFF74AF8E2
:10551000401B6528F7D30320F2BDFFF743F8401B7B
:10552000234988421DD3F6E7C0208000616801400E
:10553000204A1600002917D07A681040814213D003
:10554000606830406168802252020A43626061688C
:10555000194A0A4062606060C00705D5FFF722F86B
:10556000050060688007D8D56068064078683043D9
:1055700060600098002803D0206810490140216035
:105580003878C00705D5606903218843B9680143AD
:1055900061613878800605D5606910218843F96813
:1055A000014361610020F2BD1C1002400070004008
:1055B00089130000FFFCFFFFFFFFFEFFFFFFFFEF6F
:1055C0000248416802788918416070471005002040
:1055D00080B501200B490A6802430A600A6810403E
:1055E00000900098802040054A6802434A6049685C
:1055F000084000900098002203210120C043FFF7DB
:105600000EFE01BD1810024070B502004032537802
:10561000202B14D14023C35C012B10D00123137025
:1056200024245470046825689D4325600468256817
:10563000164E2E4026600468256829431CE002208F
:1056400070BD70B5020040325378202B12D1402338
:10565000C35C012B0ED00123137024245470046802
:1056600025689D43256004682568094E2E4009027F
:10567000314301E0022070BD2160006801680B43E6
:105680000360202050700020107070BDFFEFFFFFFE
:10569000FFF0FFFF456E636F6465725F6368616E64
:1056A00067650000556172745F6368616E676500CD
:1056B0004D6F6E69746F720041545F68616E646C07
:1056C000657200004B6C696B4B6C61636B00000092
:1056D00070B40123002413E00168001D194202D0B8
:1056E0004D466D1E49190C60091D121F042AFAD27D
:1056F0000D00960701D50C80AD1C1A4000D02C700F
:105700000268001D002AE7D170BC70477047FEE7B1
:1057100080B50420FEF7B3F801BD80B50448FDF75D
:10572000E9FB01BD80B50348FCF7F4FF01BD0000B3
:105730008C1900203018002010B507497944183121
:10574000064C7C44163404E0081D0A688918884712
:105750000100A142F8D110BD0800000024000000A3
:1057600071FFFFFF98140000E80500200000000012
:105770004BB9FFFFE40000005806000000000020C5
:1057800000F00DF8002801D0FFF7D6FF00BF00BFE2
:10579000002000BF00BFFFF7CDFA00F002F80120A3
:1057A000704780B500F002F801BDFEE707463846B5
:1057B000FCF7E2F8FBE7FF2902D90020C04370475D
:1057C0000170012070470078401E8041C043C00F27
:1057D000704738B505000C00200000F005F8A04225
:1057E00000D00025280032BD80B50249FCF73CFC02
:1057F00002BD00BFA00500207047000000000000AF
:105800000000000001020304060708096E616E0033
:105810004E414E00696E6600494E46000148804781
:1058200001480047F95700082D58000800BF00BF85
:1058300000BF00BFFFF7A4FF000000000102030447
:1058400000002E004300FEE7FEE7FEE7FEE7FEE76E
:10585000FEE7FEE7FEE7FEE7F2010001125F141229
:10586000070213147F021010242A7F2A1223130820
:10587000646236495522500005031E100D1C22415A
:10588000000041221C0014083E08140805200508E9
:105890000050300000080150080060600000201037
:1058A0000804025CF1885010333E5149453E0042E5
:1058B0007F400042615149462141454B3118141245
:1058C0007F1027454545393C4A4949300171090552
:1058D000033649494936064949291E0036365F12C2
:1058E00056051308146422140111692010140802CB
:1058F00001510906324979413E7E1111117E7F32F4
:1059000010043E414141227F04221C0F100A417FB6
:10591000090909013E4149497A7F88200A7F0041EF
:105920007F41002040413F017F4C137F4001200810
:105930007F020C027F7F0408107F3C223E32100A57
:10594000063E4151215E7F09192946464610053120
:1059500001017F01013F2D10133F1F2040201F3FF9
:105960004038403F63140814630708700807C710E5
:10597000014543007413000246200A200041417F84
:105980000004020102044001120009100E0020541C
:105990005454787F48444438384444442005100126
:1059A000487F3814101218087E0901020C52525216
:1059B0003E7F0804047800447D40A01405443D0067
:1059C0007F1028444F152720047C041804787C1E7F
:1059D000213C17387C00200408081414187C141388
:1059E000080846100A20043F4440203C4040207CE8
:1059F0001CA010061C3C4030403C442842140B0CB8
:105A00005050503C4464544C440008369F13007F6F
:105A100004F80C8F41360800100808100878464139
:105A2000467830F140501606E0F93A80797B3A31F9
:105A300080192938050103603E21217F80180477F1
:105A4000087F0877228013367F7D10027F7F100940
:105A50000521471B403E55497B2999497B113C5AFA
:105A60007F8019C239763808274848483F1E217F71
:105A7000211E7120043F20203F600732137F400227
:105A8000140B3F203F207F017F4848307F4830DDA6
:105A9000210A216E194E38063E413E462919097FDA
:105AA0007B18073C4A4A4A307C5454284E1101382E
:105AB00003603824247C8010056C107C106C00443A
:105AC0001A167C1E28057C7C2112097C7C7B18021E
:105AD0004038040462211448021010107C7B113CF1
